:0400000036EF00F0E7
:100008005082D9CF0CF0DACF0DF0F3CF0EF0F4CF49
:100018000FF00E0133A113EF00F015EF00F01FEF02
:1000280000F0C0EC0DF07C88010E00019C6FC4EC60
:100038000EF00E01339133AB24EF00F026EF00F001
:100048002CEF00F0010E00019D6F0E01339B299BE0
:100058000FC0F4FF0EC0F3FF0DC0DAFF0CC0D9FFCC
:1000680050921100FCEF0BF0F8EC0EF0290E256E03
:10007800960E246E7F0EE82EFED7242EFCD7252E52
:10008800FAD700F0B30E1C6E000E1D6E66EC0BF076
:10009800B3C0A9F0B4C0AAF0FCEC0EF0290E256E8E
:1000A800960E246E7F0EE82EFED7242EFCD7252E22
:1000B800FAD700F0AB0E1C6E000E1D6E66EC0BF04E
:1000C8001F0E246EFC0E256E0001AB51B35D266E2B
:1000D800AC51B459276E245026262550272226C015
:1000E800BDF027C0BEF0BF6B1C0E246EFE0E256E41
:1000F800AD51B55D266EAE51B659276E24502626F1
:100108002550272226C0A0F027C0A1F0A26BF40E2C
:10011800246EFE0E256EAF51B75D266EB051B859EC
:10012800276E245026262550272226C0A3F027C054
:10013800A4F0A56B490E246EFF0E256EB151B95D72
:10014800266EB251BA59276E2450262625502722EA
:1001580026C0A6F027C0A7F0A86B640E136E000E89
:10016800146E000E156EA0C010F0A1C011F0A2C050
:1001780012F0BEEC0AF010C019F011C01AF012C04B
:100188001BF0BDC01CF0BEC01DF0BFC01EF0C2EC0D
:1001980006F019500001C16F640E136E000E146E44
:1001A800000E156EA3C010F0A4C011F0A5C012F087
:1001B800BEEC0AF010C019F011C01AF012C01BF002
:1001C800BDC01CF0BEC01DF0BFC01EF0C2EC06F0E2
:1001D80019500001BB6F640E136E000E146E000EF2
:1001E800156EA6C010F0A7C011F0A8C012F0BEECA2
:1001F8000AF010C019F011C01AF012C01BF0BDC0EF
:100208001CF0BEC01DF0BFC01EF0C2EC06F01950B5
:100218000001BC6FA9514E5CAA514F58D8A017EFE6
:1002280001F019EF01F01DEF01F0090EC06FA0EF0A
:1002380001F0400EC16523EF01F025EF01F035EF25
:1002480001F00B0EBB612BEF01F02DEF01F031EF48
:1002580001F0010EC06FA0EF01F0060EC06FA0EF15
:1002680001F0410EC1613BEF01F03DEF01F05DEFA0
:1002780001F0330EC16543EF01F045EF01F05DEF8A
:1002880001F01C0EBB654BEF01F04DEF01F059EF8B
:1002980001F0150EBC6153EF01F055EF01F059EF75
:1002A80001F0040EC06FA0EF01F0050EC06FA0EFC3
:1002B80001F0340EC16163EF01F065EF01F07DEFED
:1002C80001F0220EC1656BEF01F06DEF01F07DEFDB
:1002D80001F02C0EC16573EF01F075EF01F079EFB5
:1002E80001F0080EC06FA0EF01F0070EC06FA0EF7D
:1002F80001F0230EC16183EF01F085EF01F09DEF5E
:1003080001F00E0EC1658BEF01F08DEF01F09DEF4E
:1003180001F01D0EBC6593EF01F095EF01F099EF28
:1003280001F0030EC06FA0EF01F0020EC06FA0EF46
:1003380001F0000EA4EF01F0F8EC0EF00001C0513E
:1003480012001CEC0DF08FEC0DF0C90E0001C56F0A
:10035800000EC66FD20EC76F000EC86F010EC96FB0
:10036800010ECA6FA30ECB6F0F0ECC6F7D0ECD6F33
:100378000F0ECE6F040ECF6F000ED16FC70ED06F69
:10038800010ED26F010ED36FA00ED46F0F0ED56F72
:100398007F0ED66F0F0ED76F060ED86F000EDA6F6E
:1003A800C70ED96F000E116EC70E106E3BEC0DF024
:1003B800C5C029F0C6C02AF0C7C02BF0C8C02CF0B1
:1003C8001CEC08F061EC09F0520E0001C36F2B0E13
:1003D800C26F000EE82EFED7C22FFCD7C32FFAD764
:1003E80000F0C5C041F0C6C042F0C7C043F0C8C065
:1003F80044F02EEC05F0520E0001C36F2B0EC26FB5
:10040800000EE82EFED7C22FFCD7C32FFAD700F074
:10041800C5C03FF0C6C040F0C7C041F0C8C042F0F8
:1004280043EC06F0520E0001C36F2B0EC26F000E94
:10043800E82EFED7C22FFCD7C32FFAD700F0F8EC6E
:100448000EF086EC0EF0000E0001C46F8EB62FEF92
:1004580002F031EF02F033EF02F0D8EC0BF08EB47B
:1004680038EF02F03AEF02F02AEF02F0BAEC0EF0A1
:10047800F8EC0EF0D8EC0BF0000E00019C6F000EAB
:100488009D6F38EC0EF0B7EF02F0DFEC0EF0C5C050
:1004980030F0C6C031F0C7C032F0C8C033F0000E2B
:1004A800356E000E346E8FEC08F000019C51D8A414
:1004B80060EF02F062EF02F06AEF02F09D51D8B4EB
:1004C80068EF02F06AEF02F059EF02F09C51D8B4DD
:1004D80070EF02F072EF02F09EEF02F0C5C029F053
:1004E800C6C02AF0C7C02BF0C8C02CF01CEC08F01E
:1004F800150E0001C36F4B0EC26FBE0EE82EFED75D
:10050800C22FFCD7C32FFAD700F038EC00F0000157
:10051800C46F000E9C6FC5C0BDF0C6C0BEF0C7C09A
:10052800BFF0C8C0C0F0C451C4EC02F0D8EC0BF066
:10053800B7EF02F0C5C029F0C6C02AF0C7C02BF03B
:10054800C8C02CF01CEC08F0A9EC0DF0BAEC0EF0C9
:10055800C5C0BDF0C6C0BEF0C7C0BFF0C8C0C0F0BF
:10056800080EC4EC02F0070E0001C465BEEF02F0ED
:10057800C0EF02F049EF02F02AEF02F036EF00F088
:10058800456E080E4518D8A4CCEF02F0CEEF02F065
:10059800DAEF02F0BDC0B4F0BEC0B5F0BFC0B6F02F
:1005A800C0C0B7F0BAEC05F0B1EF03F0090E45187A
:1005B800D8A4E1EF02F0E3EF02F0E7EF02F0C0ECBD
:1005C80009F0CEEF02F04504D8A4EDEF02F0EFEF0A
:1005D80002F003EF03F0BC0E106E190E116E000E40
:1005E800126E74EC0DF0BDC0B0F0BEC0B1F0BFC06B
:1005F800B2F0C0C0B3F0BFEC0CF0B1EF03F0020EE4
:100608004518D8A40AEF03F00CEF03F020EF03F02D
:100618007E0E106E190E116E000E126E74EC0DF037
:10062800BDC0B0F0BEC0B1F0BFC0B2F0C0C0B3F042
:10063800DEEC0CF0B1EF03F0030E4518D8A427EF59
:1006480003F029EF03F03DEF03F0000E106E190ED2
:10065800116E000E126E74EC0DF0BDC0B0F0BEC08D
:10066800B1F0BFC0B2F0C0C0B3F080EC0CF0B1EF95
:1006780003F0040E4518D8A444EF03F046EF03F046
:100688005AEF03F07A0E106E160E116E000E126EEF
:1006980074EC0DF0BDC03FF0BEC040F0BFC041F0EB
:1006A800C0C042F0A0EC0CF0B1EF03F0050E451805
:1006B800D8A461EF03F063EF03F077EF03F0280E9F
:1006C800106E160E116E000E126E74EC0DF0BDC099
:1006D8003FF0BEC040F0BFC041F0C0C042F0FDECEA
:1006E8000CF0B1EF03F0060E4518D8A47EEF03F026
:1006F80080EF03F094EF03F0C00E106E180E116E29
:10070800000E126E74EC0DF0BDC0B0F0BEC0B1F0BA
:10071800BFC0B2F0C0C0B3F040EC0CF0B1EF03F0D2
:10072800070E4518D8A49BEF03F09DEF03F0B1EF37
:1007380003F0800E106E180E116E000E126E74EC1F
:100748000DF0BDC0B0F0BEC0B1F0BFC0B2F0C0C0C7
:10075800B3F060EC0CF0B1EF03F0120020EE01F002
:100768001E50D9261F50DA22DF50D8B4BEEF03F04E
:10077800C0EF03F0F1EF03F01EC0D9FF1FC0DAFF8E
:10078800DF50206E2050106E116A20EE07F01E50C8
:10079800D9261F50DA22DECF12F0DDCF13F014EC89
:1007A8000EF010C016F011C017F0000E196E640E8E
:1007B800186EFFEC08F020EE07F01E50D9261F50E7
:1007C800DA22DECF21F0DDCF22F01650215C276E31
:1007D80017502258286E14EF04F01EC0D9FF1FC00E
:1007E800DAFFDF50206E2050106E116A20EE07F0FD
:1007F8001E50D9261F50DA22DECF12F0DDCF13F0BB
:1008080014EC0EF010C016F011C017F0000E196E9F
:10081800640E186EFFEC08F016C027F017C028F019
:1008280020EE02F01E50D9261F50DA22DECF20F02B
:10083800DDCF21F020C0D9FF21C0DAFF27C0DFFFBC
:1008480020EE01F01E50D9261F50DA22DF50D8B40E
:1008580030EF04F032EF04F067EF04F020EE04F01C
:100868001E50D9261F50DA22DECF20F0DDCF21F02E
:1008780020C0D9FF21C0DAFF10EE04F01E50E12697
:100888001F50E222E6CF22F0E5CF23F022C0E1FF9D
:1008980023C0E2FFE750246E10EE06F01E50E1265A
:1008A8001F50E222E750256E010E266E252A5FEFC3
:1008B80004F0D8902636252E5DEF04F0265024103B
:1008C800DF6E9BEF04F020EE04F01E50D9261F5077
:1008D800DA22DECF20F0DDCF21F020C0D9FF21C001
:1008E800DAFF10EE04F01E50E1261F50E222E6CF98
:1008F80022F0E5CF23F022C0E1FF23C0E2FFE7505A
:10090800246E10EE06F01E50E1261F50E222E7503A
:10091800256E010E266E252A94EF04F0D89026360F
:10092800252E92EF04F02650FF0A2414DF6E1200E1
:1009380030C029F031C02AF032C02BF033C02CF07F
:100948001CEC08F020EE01F03050D9263150DA22A4
:10095800000EDF6E20EE01F03250D9263350DA2235
:10096800000EDF6E32C01EF033C01FF0B2EC03F091
:1009780030C01EF031C01FF0B2EC03F0E6EF04F017
:1009880030C0D9FF31C0DAFFDF50050F30C0D9FFC2
:1009980031C0DAFFDF6E32C0D9FF33C0DAFFDF5073
:1009A800050F32C0D9FF33C0DAFFDF6E32C01EF048
:1009B80033C01FF0B2EC03F030C01EF031C01FF09E
:1009C800B2EC03F030C0D9FF31C0DAFFDF50366E29
:1009D800376A32C0D9FF33C0DAFFDF50386E38507B
:1009E8003626000E372237BE03EF05F0375009E1EF
:1009F800820E365CD8A003EF05F005EF05F0C4EFD2
:100A080004F030C0D9FF31C0DAFFDF50020F30C028
:100A1800D9FF31C0DAFFDF6E32C0D9FF33C0DAFF49
:100A2800DF50020F32C0D9FF33C0DAFFDF6E32C0A9
:100A38001EF033C01FF0B2EC03F030C01EF031C01E
:100A48001FF0B2EC03F034C010F035C011F058ECD0
:100A58000DF01200C0EC09F0A9EF05F041C039F023
:100A680042C03AF043C03BF044C03CF08BEC0AF083
:100A7800000E0001A06F41C030F042C031F043C009
:100A880032F044C033F0A9EC07F00001A02B030EAC
:100A9800A06551EF05F053EF05F03FEF05F061EF6A
:100AA80005F0520E466E2B0E456E000EE82EFED750
:100AB800452EFCD7462EFAD700D08EA466EF05F057
:100AC80068EF05F06FEF05F08EB66DEF05F06FEF8C
:100AD80005F055EF05F08EB474EF05F076EF05F0EC
:100AE80081EF05F08EB67BEF05F07DEF05F081EF25
:100AF80005F080867C8E9BEF05F08EB486EF05F0BE
:100B080088EF05F08FEF05F0F60E4B26FF0E4C220E
:100B18007C8E9BEF05F08EB694EF05F096EF05F00E
:100B28009BEF05F00A0E4B26000E4C228086A30E82
:100B3800466E570E456E020EE82EFED7452EFCD7A0
:100B4800462EFAD700D07C9E80968EB6AEEF05F082
:100B5800B0EF05F032EF05F08EB4B5EF05F0B7EF62
:100B680005F032EF05F0C0EC09F01200B4C0B0F0A7
:100B7800B5C0B1F0B6C0B2F0B7C0B3F080EC0CF0BD
:100B88002DEF06F068EC0EF010C0BBF011C0BCF001
:100B9800B4C030F0B5C031F0B6C032F0B7C033F0F1
:100BA800BBC034F0BCC035F08FEC08F0B4C029F0FD
:100BB800B5C02AF0B6C02BF0B7C02CF01CEC08F07A
:100BC800520E446E2B0E436E000EE82EFED7432EB7
:100BD800FCD7442EFAD700D000019F51D8B4F7EFC4
:100BE80005F0F9EF05F021EF06F027EC0EF010C044
:100BF800B8F011C0B9F012C0BAF0B4C0B0F0B5C0C6
:100C0800B1F0B6C0B2F0B7C0B3F002D817EF06F033
:100C18000500FA6E0001B851FD6EB951FE6EBA5169
:100C2800FF6EFA501200B4C029F0B5C02AF0B6C061
:100C38002BF0B7C02CF01CEC08F0520E446E2B0EB3
:100C4800436E000EE82EFED7432EFCD7442EFAD76B
:100C580000D000019E51D8A434EF06F036EF06F01C
:100C6800C6EF05F0B4C029F0B5C02AF0B6C02BF025
:100C7800B7C02CF01CEC08F0C0EC09F01200C0EC76
:100C880009F0B1EF06F03FC039F040C03AF041C07A
:100C98003BF042C03CF0B3EC0BF03FC029F040C041
:100CA8002AF041C02BF042C02CF01CEC08F069EF90
:100CB80006F0520E446E2B0E436E000EE82EFED741
:100CC800432EFCD7442EFAD700D08EA66EEF06F03E
:100CD80070EF06F077EF06F08EB475EF06F077EF59
:100CE80006F05DEF06F08EB47CEF06F07EEF06F0BE
:100CF80089EF06F08EB683EF06F085EF06F089EFF0
:100D080006F080867C8EA3EF06F08EB48EEF06F098
:100D180090EF06F097EF06F06A0E4926FF0E4A227A
:100D28007C8EA3EF06F08EB69CEF06F09EEF06F0E1
:100D3800A3EF06F0960E4926000E4A228086A30EDF
:100D4800446E570E436E020EE82EFED7432EFCD794
:100D5800442EFAD700D07C9E80968EB6B6EF06F069
:100D6800B8EF06F047EF06F08EB4BDEF06F0BFEF20
:100D780006F047EF06F0C0EC09F01200000E206EF6
:100D88001EBECBEF06F0C9EF06F0D3EF06F01E1E2D
:100D98001D1E1C6C000E1D221E22010E206E1BBE85
:100DA800DAEF06F0D8EF06F0E2EF06F01B1E1A1E87
:100DB800196C000E1A221B22010E201A000E216E39
:100DC800000E226E000E236E1C501D101E10D8B48B
:100DD800F0EF06F0F2EF06F021EF07F0010E1F6EBC
:100DE800FBEF06F0D8901C361D361E361F2A1EAEA5
:100DF80000EF07F002EF07F0F6EF06F0D890213683
:100E0800223623361C50195C1D501A581E501B5888
:100E1800D8A011EF07F013EF07F01AEF07F01C50F6
:100E2800195E1D501A5A1E501B5A2180D8901E3226
:100E38001D321C321F2E02EF07F02050D8B427EFC6
:100E480007F029EF07F02FEF07F0231E221E216C71
:100E5800000E2222232221C019F022C01AF023C03A
:100E68001BF0120030C029F031C02AF032C02BF03C
:100E780033C02CF01CEC08F020EE01F03050D926DD
:100E88003150DA22010EDF6E20EE01F03250D92601
:100E98003350DA22000EDF6E30C01EF031C01FF072
:100EA800B2EC03F032C01EF033C01FF0B2EC03F016
:100EB80080EF07F032C0D9FF33C0DAFFDF500A0FE6
:100EC80032C0D9FF33C0DAFFDF6E30C0D9FF31C07E
:100ED800DAFFDF500A0F30C0D9FF31C0DAFFDF6E0A
:100EE80030C01EF031C01FF0B2EC03F032C01EF06B
:100EF80033C01FF0B2EC03F030C0D9FF31C0DAFFC5
:100F0800500EDE18D8A48BEF07F08DEF07F05EEFD8
:100F180007F04BC010F04CC011F058EC0DF030C089
:100F280029F031C02AF032C02BF033C02CF01CEC71
:100F380008F00D0E356E2D0E346ED80EE82EFED745
:100F4800342EFCD7352EFAD7120030C029F031C024
:100F58002AF032C02BF033C02CF01CEC08F020EE45
:100F680001F03050D9263150DA22000EDF6E20EE23
:100F780001F03250D9263350DA22010EDF6E30C02C
:100F88001EF031C01FF0B2EC03F032C01EF033C0C7
:100F98001FF0B2EC03F0F3EF07F032C0D9FF33C013
:100FA800DAFFDF500A0F32C0D9FF33C0DAFFDF6E35
:100FB80030C0D9FF31C0DAFFDF500A0F30C0D9FF87
:100FC80031C0DAFFDF6E32C01EF033C01FF0B2EC62
:100FD80003F030C01EF031C01FF0B2EC03F032C095
:100FE800D9FF33C0DAFF500EDE18D8A4FEEF07F0A1
:100FF80000EF08F0D1EF07F04BC010F04CC011F033
:1010080058EC0DF030C029F031C02AF032C02BF076
:1010180033C02CF01CEC08F00D0E356E2D0E346E1E
:10102800D80EE82EFED7342EFCD7352EFAD712006C
:1010380058EF08F029C0D9FF2AC0DAFFDF50D8B42A
:1010480028EF08F02AEF08F035EF08F029C0D9FF9B
:101058002AC0DAFFDF50FB0F29C0D9FF2AC0DAFF08
:10106800DF6E2BC0D9FF2CC0DAFFDF50D8B43FEFBA
:1010780008F041EF08F04CEF08F02BC0D9FF2CC066
:10108800DAFFDF50FB0F2BC0D9FF2CC0DAFFDF6E71
:1010980029C01EF02AC01FF0B2EC03F02BC01EF0CE
:1010A8002CC01FF0B2EC03F029C0D9FF2AC0DAFF28
:1010B800DF502D6E2E6A2BC0D9FF2CC0DAFFDF500F
:1010C8002F6E2F502D26000E2E222EBE76EF08F002
:1010D8002E5006E12D04D8B074EF08F076EF08F032
:1010E8001EEF08F029C0D9FF2AC0DAFF000EDF6E14
:1010F8002BC0D9FF2CC0DAFF000EDF6E29C01EF00E
:101108002AC01FF0B2EC03F02BC01EF02CC01FF059
:10111800B2EC03F0120030C029F031C02AF032C01E
:101128002BF033C02CF01CEC08F020EE01F030500E
:10113800D9263150DA22010EDF6E20EE01F032504E
:10114800D9263350DA22010EDF6E32C01EF033C0CA
:101158001FF0B2EC03F030C01EF031C01FF0B2EC4B
:1011680003F0D9EF08F032C0D9FF33C0DAFFDF50FF
:10117800050F32C0D9FF33C0DAFFDF6E30C0D9FFA8
:1011880031C0DAFFDF50050F30C0D9FF31C0DAFFB8
:10119800DF6E30C01EF031C01FF0B2EC03F032C079
:1011A8001EF033C01FF0B2EC03F030C0D9FF31C0DD
:1011B800DAFFDF50366E376A32C0D9FF33C0DAFF44
:1011C800DF50386E38503626000E372237BEF6EF1D
:1011D80008F0375009E1320E365CD8A0F6EF08F077
:1011E800F8EF08F0B7EF08F034C010F035C011F090
:1011F80058EC0DF01200000E1B6E19BE08EF09F036
:1012080006EF09F00EEF09F0186C191ED8B0192A6C
:10121800010E1B6E17BE15EF09F013EF09F01BEF57
:1012280009F0166C171ED8B0172A010E1B1A000EEB
:101238001D6E000E1C6E18501910D8B426EF09F058
:1012480028EF09F050EF09F0010E1A6E30EF09F09F
:10125800D890183619361A2A19AE35EF09F037EF33
:1012680009F02CEF09F0D8901C361D361850165C82
:1012780019501758D8A043EF09F045EF09F04AEF85
:1012880009F01850165E1950175A1C80D890193258
:1012980018321A2E37EF09F01B50D8B456EF09F060
:1012A80058EF09F05CEF09F01C6C1D1ED8B01D2A20
:1012B8001CC016F01DC017F01200C0EC09F0F8ECC5
:1012C8000EF08EB66AEF09F06CEF09F065EF09F0E1
:1012D800C0EC09F0140EEAEC0AF014C047F015C08F
:1012E80048F08EB67AEF09F07CEF09F075EF09F057
:1012F800C0EC09F0140EEAEC0AF014C01CF015C09A
:101308001DF08EB68AEF09F08CEF09F085EF09F031
:10131800C0EC09F0140EEAEC0AF014C01EF015C077
:101328001FF01C501E5C1D501F58D8B09EEF09F0CE
:10133800A0EF09F0B2EF09F01EC010F01FC011F0C5
:10134800000E136E140E126E17EC0AF010501E5C8D
:101358004E6E11501F584F6EB6EF09F0000E4F6ECB
:10136800000E4E6E8EB6BBEF09F0BDEF09F0B6EF7A
:1013780009F0C0EC09F01200000E126E7CAEC7EF47
:1013880009F0CBEF09F0106A102ACCEF09F0106AC7
:10139800103210327C5010187F0B10187C6E80A60B
:1013A800D8EF09F0DCEF09F0106A102ADDEF09F038
:1013B800106A10461046104680501018F70B101887
:1013C800806E7CA8EAEF09F0EEEF09F0106A102AA7
:1013D800EFEF09F0106A103A7C501018EF0B101854
:1013E8007C6E290E116E960E106E7F0EE82EFED7BB
:1013F800102EFCD7112EFAD700F0122A030E126411
:1014080008EF0AF00AEF0AF0C2EF09F0290E116E90
:10141800960E106E7F0EE82EFED7102EFCD7112EDA
:10142800FAD700F01200000E156E000E146E12505E
:101438001310D8B422EF0AF024EF0AF04CEF0AF0A8
:10144800010E166E2CEF0AF0D89012361336162AB3
:1014580013AE31EF0AF033EF0AF028EF0AF0D89014
:10146800143615361250105C13501158D8A03FEF9F
:101478000AF041EF0AF046EF0AF01250105E1350DE
:10148800115A1480D89013321232162E33EF0AF004
:1014980014C010F015C011F01200000E066E000EF8
:1014A800056E03500410D8B45CEF0AF05EEF0AF042
:1014B80086EF0AF0010E076E66EF0AF0D890033641
:1014C8000436072A04AE6BEF0AF06DEF0AF062EFFC
:1014D8000AF0D890053606360350015C04500258CD
:1014E800D8A079EF0AF07BEF0AF080EF0AF00350FA
:1014F800015E0450025A0580D89004320332072E48
:101508006DEF0AF005C001F006C002F0120049C0F4
:1015180016F04AC017F0000E196E050E186EFFEC93
:1015280008F016C03FF017C040F039C030F03AC09C
:1015380031F03BC032F03CC033F03FC034F040C023
:1015480035F09CEC04F039C029F03AC02AF03BC0D1
:101558002BF03CC02CF01CEC08F0110E3E6E3C0E3B
:101568003D6ECB0EE82EFED73D2EFCD73E2EFAD789
:1015780000F01200000E166E000E176E000E186EA8
:1015880010A0C9EF0AF0CBEF0AF0D1EF0AF0135020
:1015980016261450172215501822D89013361436D0
:1015A8001536D89012321132103210501110121014
:1015B800D8A4E1EF0AF0E3EF0AF0C4EF0AF016C08E
:1015C80010F017C011F018C012F01200196EE9ECF3
:1015D8000EF0520ECEEC0EF01950A009CEEC0EF023
:1015E800DAEC0EF0530ECEEC0EF0010E1FEC0CF000
:1015F800166E16501A6E1B6A000E1FEC0CF0166E53
:101608001650186E176A1A5017101A6E1B501810B9
:101618001B6EE4EC0EF01AC014F01BC015F012009B
:10162800B0C030F0B1C031F0B2C032F0B3C033F066
:10163800A9EC07F0B0C030F0B1C031F0B2C032F060
:10164800B3C033F0A9EC07F0B0C039F0B1C03AF03C
:10165800B2C03BF0B3C03CF08EEC0BF0B0C0B0F0C1
:10166800B1C0B1F0B2C0B2F0B3C0B3F080EC0CF0CE
:101678001200B0C030F0B1C031F0B2C032F0B3C027
:1016880033F036EC07F0B0C030F0B1C031F0B2C082
:1016980032F0B3C033F036EC07F0B0C039F0B1C067
:1016A8003AF0B2C03BF0B3C03CF08EEC0BF0B0C0E7
:1016B800B0F0B1C0B1F0B2C0B2F0B3C0B3F080ECDA
:1016C8000CF01200000E1F6E000E1E6E1E50020D52
:1016D800F350140FEAEC0AF0D8901E34D96E1F3478
:1016E800DA6E1C50D9261D50DA2214C0DEFF15C050
:1016F800DDFF1E4A1F2A1FBE8BEF0BF01F5009E1AA
:10170800040E1E5CD8A08BEF0BF08DEF0BF06AEF88
:101718000BF0120039C030F03AC031F03BC032F063
:101728003CC033F049C034F04AC035F08FEC08F0C3
:1017380039C029F03AC02AF03BC02BF03CC02CF04D
:101748001CEC08F0150E3E6E4B0E3D6EBE0EE82EDC
:10175800FED73D2EFCD73E2EFAD700D0120039C056
:1017680030F03AC031F03BC032F03CC033F049C0F1
:1017780034F04AC035F09CEC04F039C029F03AC086
:101788002AF03BC02BF03CC02CF01CEC08F0150EE6
:101798003E6E4B0E3D6EBE0EE82EFED73D2EFCD79C
:1017A8003E2EFAD700D01200A4EC0EF0130E126EE3
:1017B800000E48EC0EF04EC012F0040E48EC0EF08D
:1017C8004F50126E050E48EC0EF047C012F0060E90
:1017D80048EC0EF04850126E070E48EC0EF0010E61
:1017E800126E0C0E48EC0EF0A4EC0EF07C98120071
:1017F800000EF66E1E0EF76E000EF86E00EE47F045
:1018080010EE07F00900F5CFEEFFE550E150FAE1E0
:1018180001EE00F05A0EEE6AE806FDE100EE60F017
:10182800400EEE6AE806FDE14F6A4E6A509050920B
:101838000001A5EF01F0126EECEC0DF00E01DA8755
:10184800ECEC0DF0D5CE13F0ECEC0DF01250D8B452
:1018580030EF0CF034EF0CF0116A112A35EF0CF070
:10186800116A113A11460E01DA511118DF0B1118DD
:10187800DA6FDA8913501200B0C039F0B1C03AF00B
:10188800B2C03BF0B3C03CF08BEC0AF0000E426EE5
:10189800B0C030F0B1C031F0B2C032F0B3C033F0F4
:1018A80036EC07F0422A020E42645DEF0CF05FEF5F
:1018B8000CF04CEF0CF01200B0C039F0B1C03AF0A7
:1018C800B2C03BF0B3C03CF08BEC0AF0000E426EA5
:1018D800B0C030F0B1C031F0B2C032F0B3C033F0B4
:1018E800A9EC07F0422A020E42647DEF0CF07FEF6C
:1018F8000CF06CEF0CF01200B0C039F0B1C03AF047
:10190800B2C03BF0B3C03CF08BEC0AF0000E416E65
:10191800B0C030F0B1C031F0B2C032F0B3C033F073
:10192800A9EC07F0412A030E41649DEF0CF09FEFEC
:101938000CF08CEF0CF012003FC039F040C03AF0C8
:1019480041C03BF042C03CF0B3EC0BF03FC030F07C
:1019580040C031F041C032F042C033F036EC07F0FD
:101968003FC030F040C031F041C032F042C033F0E7
:1019780036EC07F01200B0C039F0B1C03AF0B2C08E
:101988003BF0B3C03CF08BEC0AF0B0C030F0B1C013
:1019980031F0B2C032F0B3C033F036EC07F0B0C06B
:1019A80030F0B1C031F0B2C032F0B3C033F036EC31
:1019B80007F01200B0C039F0B1C03AF0B2C03BF045
:1019C800B3C03CF08BEC0AF0B0C030F0B1C031F0DD
:1019D800B2C032F0B3C033F0A9EC07F0B0C030F0B9
:1019E800B1C031F0B2C032F0B3C033F0A9EC07F0A7
:1019F80012003FC039F040C03AF041C03BF042C04D
:101A08003CF0B3EC0BF03FC030F040C031F041C0C7
:101A180032F042C033F0A9EC07F03FC030F040C0CC
:101A280031F041C032F042C033F0A9EC07F01200A7
:101A3800D7EC0DF0010E126E000E48EC0EF03F0EC2
:101A4800146E550EE82EFED7142EFCD700F0030EA8
:101A5800126E000E48EC0EF0D50E126E010E48EC18
:101A68000EF0000E126E0F0E48EC0EF01200BD5074
:101A78008F0B1009BD6EE00EBE16BF50F00B0109AA
:101A8800BF6E10C0BCFFBD8E8598879C8594839ED1
:101A98000A0E0E01746F0B0E696F000EA36E000E16
:101AA800A06EA48EA18E1200000E146E000E136E8E
:101AB80068EF0DF0150E126EC60EE82EFED7122E28
:101AC800FCD700D0134A142A1050135C1150145834
:101AD800D8A071EF0DF073EF0DF05EEF0DF012006E
:101AE80000019F51030D000EF324D96E010EF4205E
:101AF800DA6E10C0DEFF11C0DEFF12C0DEFF9F2BC2
:101B08001D0E9F658AEF0DF08CEF0DF08EEF0DF036
:101B1800010E9D6F12008790859E8196849E8896FF
:101B2800889284968498889086907F907D9E7996F6
:101B38007C9E809680927C967C987E90809086840D
:101B48000E01B4958686B4971200D350D4501A6EFD
:101B5800196A19C010F01AC011F0000E136E2A0E7F
:101B6800126E17EC0AF019501024176E1A50112033
:101B7800186E77EC0EF01200D350D4500B6E0A6A30
:101B88000AC001F00BC002F0000E046E2A0E036EAC
:101B980051EC0AF00A500124086E0B500220096E1D
:101BA80095EC0EF012000E01D951F00B0809D96F0F
:101BB800D98B9F0ED66F848A848CA79BA79D1D0EF8
:101BC8001D6F1E0E1C6F1C0E6F6F1B0E706F1200A8
:101BD8000E01D8B5F2EF0DF0F4EF0DF0ECEF0DF0CB
:101BE800DACE10F01F0E1016D8A4FDEF0DF0FFEF9F
:101BF8000DF0ECEF0DF012000E01D8B506EF0EF067
:101C080008EF0EF000EF0EF0DACE01F01F0E01160D
:101C1800D8A411EF0EF013EF0EF000EF0EF0120043
:101C280010501202F3CF14F0F4CF15F01050130235
:101C3800F350152611501202F350152614C010F057
:101C480015C011F0120000019F079F51030D000EEF
:101C5800F324D96E010EF420DA6EDECF10F0DECF59
:101C680011F0DDCF12F01200D6501F0B4009D66ECE
:101C7800D688D650F00B0E09D66ED588000ED46ED5
:101C8800000ED36ED58E1200136EE9EC0EF0520ED4
:101C9800CEEC0EF013508009CEEC0EF01250CEECC4
:101CA8000EF0E4EC0EF01200046EF3EC0EF0520E9F
:101CB800D4EC0EF004508009D4EC0EF00350D4ECB0
:101CC8000EF0EEEC0EF0120000019E079E51020D80
:101CD800600EF324D96E000EF420DA6EDECF10F019
:101CE800DDCF11F0120000019E51020D600EF324A9
:101CF800D96E000EF420DA6E17C0DEFF18C0DDFFC3
:101D08009E2B1200F28A0E01298B1F8B82809A91DA
:101D180029813391F2901F81D8EC0BF0F28CF28E6E
:101D2800120000019E51020D600EF324D96E000EC0
:101D3800F420DA6E08C0DEFF09C0DDFF9E2B12001A
:101D4800E9EC0EF0520ECEEC0EF0E60ECEEC0EF0F4
:101D5800E4EC0EF01200F3EC0EF0520ED4EC0EF0A0
:101D6800E60ED4EC0EF0EEEC0EF01200A4EC0EF041
:101D7800030E126E000E48EC0EF0A4EC0EF01200EA
:101D8800AFEC0EF0030E036E000E58EC0EF0AFEC45
:101D98000EF01200116EECEC0DF011C0D5FE120021
:101DA800026E00EC0EF002C0D5FE1200ECEC0DF055
:101DB8000E01DA831200000ED46E000ED36E1200EC
:101DC800ECEC0DF00E01DA851200ECEC0DF00E01D2
:101DD800DA81120000EC0EF00E01DA85120000EC38
:101DE8000EF00E01DA8112007F807D8E7986120056
:0F1DF8007F907D9E79961200B20C280A74001914
:020000040020DA
:10000000FF0FFF0FFF0FFF0FFF0FFF0FFF0FFF0F80
:020000040030CA
:0C000000AAFFFFFF9FFFFFFFFFFFFFFFB5
:00000001FF
