:040000003DEF00F0E0
:1000080017820E0133AB0BEF00F00DEF00F020EF7D
:1000180000F00E50D8B413EF00F015EF00F01BEF0E
:1000280000F00B0ED46EDC0ED36E1FEF00F02B0E1B
:10003800D46E230ED36E339B35A125EF00F027EF46
:1000480000F03BEF00F080A62CEF00F030EF00F05E
:10005800016A012A31EF00F0016A014601460146B2
:1000680080500118F70B0118806E0E013591179218
:10007800110064EF02F0809688967CEC02F0B4ECF4
:1000880002F09FEC02F0F5EC01F08FEC02F0CDCF1E
:1000980016F0165081EC01F01650D8B456EF00F067
:1000A80058EF00F065EF00F0050E16605EEF00F007
:1000B80060EF00F065EF00F080960E01C69F67EFD5
:1000C80000F00E01C68F180E1618D8A46EEF00F0B7
:1000D80070EF00F0A6EF00F0160E026E000E036E31
:1000E800130E046E000E056E0F0E066E000E076EE0
:1000F800C3EC01F06F0E0F5C010E1058D8A087EF0B
:1001080000F089EF00F0A6EF00F015A08EEF00F0E8
:1001180090EF00F0A6EF00F00F0E026E000E036ED7
:10012800120E046E000E056E150E066E000E076E9A
:10013800140E086E000E096E110E0A6E000E0B6E7C
:1001480020EC01F01150D8A4ACEF00F0AEEF00F0B5
:10015800E1EF00F0105009E1540E0F5CD8A0B7EFA2
:1001680000F0B9EF00F0E1EF00F01550D8B4BFEFA0
:1001780000F0C1EF00F0D3EF00F015A0C6EF00F0DB
:10018800C8EF00F0E1EF00F0105009E1550E0F5CE8
:10019800D8A0D1EF00F0D3EF00F0E1EF00F0160E99
:1001A800026E000E036E130E046E000E056E110E25
:1001B800066E000E076E1EEC02F01450D8A4E7EF8E
:1001C80000F0E9EF00F04BEF00F02A0E0F5C010E93
:1001D8001058D8A0F2EF00F0F4EF00F04BEF00F069
:1001E8001550D8B4FAEF00F0FCEF00F00EEF01F074
:1001F80015A001EF01F003EF01F04BEF00F02B0E1B
:100208000F5C010E1058D8A00CEF01F00EEF01F0B2
:100218004BEF00F0160E026E000E036E130E046E06
:10022800000E056E140E066E000E076E41EC02F00D
:100238004BEF00F03DEF00F006C0D9FF07C0DAFF32
:10024800DF50D8A42AEF01F02CEF01F047EF01F0BE
:1002580002C0D9FF03C0DAFF010EDE6E000EDD6EAC
:1002680004C0D9FF05C0DAFFDF2A0AC0D9FF0BC0D6
:10027800DAFF000EDF6E08C0D9FF09C0DAFF000EF2
:10028800DF6E80EF01F006C0D9FF07C0DAFFDFA0FC
:1002980050EF01F052EF01F080EF01F002C0D9FFFA
:1002A80003C0DAFF6F0EDE5C010EDE58D8A05FEFE8
:1002B80001F061EF01F080EF01F002C0D9FF03C047
:1002C800DAFF010EDE6E000EDD6E04C0D9FF05C038
:1002D800DAFFDF2A0AC0D9FF0BC0DAFF000EDF6E93
:1002E80008C0D9FF09C0DAFF000EDF6E06C0D9FFCB
:1002F80007C0DAFF000EDF6E1200036E03C002F0C3
:10030800023A0F0E0216010E0216023A795002182E
:10031800EF0B0218796E03C002F0D8900232D89021
:100328000232D8900232010E0216023A0246795081
:100338000218DF0B0218796E03C002F0D89002325F
:10034800D8900232010E02167E500218FE0B0218D7
:100358007E6E03C002F0D8900232010E02167A5067
:100368000218FE0B02187A6E03C002F0010E021684
:1003780002467A500218FD0B02187A6E120002C06B
:10038800D9FF03C0DAFF000EDF6E000ECD6E06C087
:10039800D9FF07C0DAFFDE2A000EDD2204C0D9FF2C
:1003A80005C0DAFFDF2A04C0D9FF05C0DAFFDFA6DF
:1003B800E0EF01F0E2EF01F0F4EF01F004C0D9FF43
:1003C80005C0DAFF010EDF6E0E50D8A4EEEF01F083
:1003D800F0EF01F0F4EF01F02B0ED46E040ED36EA3
:1003E80012000E50D8B4FBEF01F0FDEF01F00CEF56
:1003F80002F0D6501F0B4009D66ED688D650F00BA7
:100408000809D66E0B0ED46EDC0ED36E18EF02F010
:10041800D6501F0B8009D66ED650F00B0B09D66E3E
:100428002B0ED46E240ED36ED5880E01298B1F8B0C
:10043800D58E120004C0D9FF05C0DAFF070EDE18FA
:10044800D8A429EF02F02BEF02F040EF02F002C02F
:10045800D9FF03C0DAFF020EDE18D8A436EF02F087
:1004680038EF02F040EF02F006C0D9FF07C0DAFF0C
:10047800010EDF6E030ECD6E120004C0D9FF05C059
:10048800DAFF070EDE18D8A44CEF02F04EEF02F0A8
:1004980063EF02F002C0D9FF03C0DAFF020EDE18D4
:1004A800D8A459EF02F05BEF02F063EF02F006C048
:1004B800D9FF07C0DAFF010EDF6E010ECD6E120004
:1004C800720EF66E050EF76E000EF86E00EE0EF068
:1004D80010EE06F00900F5CFEEFFE550E150FAE125
:1004E800166A156A146A1790179200013FEF00F018
:1004F800868E0E01D251F80B0309D26FD351F80B37
:100508000509D36FD083D089D183D181AAEC02F0B9
:100518000E01D08F1200D250F00B0809D26ECF0E08
:10052800CF160E012E812481000ECE6E16C0CDFF8F
:10053800CF80D08E12008198819A86908290829284
:100548007998799A7E907A907A921200F30E0E0139
:10055800C617C691C751E00B0909C76FC68F1200AD
:100568000E012B81F28CF28E1200012F010115066B
:020000040020DA
:10000000FF0FFF0FFF0FFF0FFF0FFF0FFF0FFF0F80
:020000040030CA
:0C000000AAFFFFFF9FFFFFFFFFFFFFFFB5
:00000001FF
